:03000000020016E5
:0C001600787FE4F6D8FD75810802005DDB
:03013C00010800B7
:1000A20075A0FE120006E508600FAFA07801EF0808
:1000B200800123D8FDF5A0800DAFA07801EF088064
:0F00C2000103D8FDF5A07FD07E0712012380D760
:0B000600D288D2A8D28AD2AAD2AF22A0
:10012300D3EF9400EE9400400F7D017C16DCFEDDDE
:08013300FAEF1F70EB1E80E8DB
:01013B0022A1
:030003000200D127
:1000D100C0E0C0D075D000C004C005C006C0077F15
:1000E100017E0012012320B203750801D007D0065A
:0900F100D005D004D0D0D0E032DB
:030013000200FAEE
:1000FA00C0E0C0D075D000C004C005C006C0077FEC
:10010A00017E0012012320B303750800D007D00630
:09011A00D005D004D0D0D0E032B1
:100022000200A2E493A3F8E493A34003F68001F252
:1000320008DFF48029E493A3F85407240CC8C333DF
:10004200C4540F4420C8834004F456800146F6DFAE
:10005200E4800B010204081020408090013CE47E01
:10006200019360BCA3FF543F30E509541FFEE493A3
:10007200A360010ECF54C025E060A840B8E493A36A
:10008200FAE493A3F8E493A3C8C582C8CAC583CA95
:10009200F0A3C8C582C8CAC583CADFE9DEE780BE4D
:01013F0000BF
:00000001FF
