:10002F00C2B6C2B5E4FEEFC4131313540124FF92FA
:10003F00B4EF25E0FFD2B60000C2B60EBE08E7D27D
:05004F00B50000C2B580
:010054002289
:08005500EB25E0FB7F327E0089
:10005D00D3EF9400EE9400400F7D267C82DCFEDD14
:08006D00FAEF1F70EB1E80E8A2
:010075002268
:100003007B01E4FAEBF4F5807FFF12002F12005519
:100013000ABA08F07B01E4FAEAC3940850E2AF039A
:0C00230012002FE4F5801200550A80EC5A
:0300000002007685
:0C007600787FE4F6D8FD758107020003D6
:00000001FF
