:03000000020003F8
:0C000300787FE4F6D8FD75811C02004AED
:1001A50011082050656368696E20536369656E6345
:0301B500652000C2
:10015300120187E4F51AF51B7408251BF8E6FF1254
:1001630001D2051BE51BC3941040ED12008FE51A65
:1001730060F9E4F51A7FC01201C6E5192430FF12B5
:0401830001D280E73E
:10008F0075900FE590640F60781201B9E590640FD9
:10009F00606F751A0175900FAF90EF24F560102403
:1000AF00FE601114601324077012E4F519800D75AA
:1000BF001901800875190280037519037590F012E4
:1000CF0001B9AF90EF2450601124E0601124F0606B
:1000DF001124707013851919800E7404800674082A
:1000EF008002740C2519F519C3E51C648094B25075
:1000FF000DE59064F060071201B9051C80EAE4F584
:01010F001CD3
:0101100022CC
:0C01B9007F017E267D82DDFEDEFADFF68F
:0101C5002217
:10011100C2A58B807F017E0012013AD2A77F057EA6
:100121000012013AC2A7EBC454F0F5807F017E00B2
:0901310012013AD2A77F057E00FD
:10013A00D3EF9400EE9400400F7DC77C01DCFEDD16
:08014A00FAEF1F70EB1E80E8C4
:01015200228A
:0C01C600AB07C2A7C2A6120111C2A722FB
:0C01D200AB07C2A7D2A6120111C2A722DF
:100187007F321201C67F281201C67F0C1201C67F7B
:0E019700061201C67F011201C67F800201C65A
:10000F00020153E493A3F8E493A34003F68001F2B3
:10001F0008DFF48029E493A3F85407240CC8C333F2
:10002F00C4540F4420C8834004F456800146F6DFC1
:10003F00E4800B01020408102040809001A5E47EAB
:10004F00019360BCA3FF543F30E509541FFEE493B6
:10005F00A360010ECF54C025E060A840B8E493A37D
:10006F00FAE493A3F8E493A3C8C582C8CAC583CAA8
:10007F00F0A3C8C582C8CAC583CADFE9DEE780BE60
:0101B8000046
:00000001FF
