:030000000200FFFC
:0C00FF00787FE4F6D8FD75810B02000349
:0A010B003F065B4F666D7D077F6FB6
:10000300C2A2C2A3C2A420B12B1200F220B105E404
:10001300F50AF50BC3E5099432E508940050102066
:10002300B10D1200F20509E50970E9050880E5E460
:10003300F508F50920B02C1200F220B006750A006D
:10004300750B09C3E5099432E5089400501020B0FC
:100053000D1200F20509E50970E9050880E5E4F5EC
:1000630008F50920B23F1200F220B219E50B150B77
:100073007002150AD3E50B9409E50A94004006754E
:100083000A00750B09C3E5099432E5089400501082
:1000930020B20D1200F20509E50970E9050880E5B3
:1000A300E4F508F50920B33C1200F220B316050B62
:1000B300E50B7002050AD39409E50A94004005E4B0
:1000C300F50AF50BC3E5099432E5089400501020B6
:1000D300B30D1200F20509E50970E9050880E5E4AE
:0F00E300F508F509E50B90010B93F58002000974
:0C00F2007F017E267D82DDFEDEFADFF657
:0100FE0022DF
:00000001FF
