:0300000002024BAE
:0C024B00787FE4F6D8FD75810E02000EED
:10000E0012023B12027812020075080CE50875F018
:10001E000A842430FF120263E50875F00A84E5F0C5
:10002E002430FF1202637F2D120263E50975F00A78
:10003E00842430FF120263E50975F00A84E5F0248A
:10004E0030FF1202637F2D120263E50A75F00A84F7
:10005E002430FF120263E50A75F00A84E5F02430BD
:10006E00FF120263308C0302010F20B03612021E03
:10007E0020B00C050EE50EC394034003E4F50EC349
:10008E00E50C9432E50B9400501420B0117F017EE4
:10009E0000120222050CE50C70E5050B80E1E4F57B
:1000AE000BF50C20B15B12021E20B131E50E700E65
:1000BE00050AE50AC3943C4024E4F50A801FE50EC8
:1000CE00B4010E0509E509C3943C4011E4F509801D
:1000DE000C0508E508C394184003E4F508C3E50CC5
:1000EE009432E50B9400501420B1117F017E001262
:1000FE000222050CE50C70E5050B80E1E4F50BF52D
:10010E000CE50DC394144021E4F50D050AE50AB47F
:10011E003C17E4F50A0509E509B43C0DE4F50905BB
:10012E0008E508B41803E4F5087F80120257E508C5
:10013E0075F00A842430FF120263E50875F00A8414
:10014E00E5F02430FF1202637F83120257E5097532
:10015E00F00A842430FF120263E50975F00A84E583
:10016E00F02430FF1202637F86120257E50A75F003
:10017E000A842430FF120263E50A75F00A84E5F062
:09018E002430FF1202630200722A
:04021E007F0A7E00D5
:10022200D3EF9400EE9400400F7DC77C01DCFEDD2D
:08023200FAEF1F70EB1E80E8DB
:01023A0022A1
:10023B00758901758C3C758AB0D2AFD2A9D28C224C
:03000B0002026F7F
:09026F00758C3C758AB0050D3256
:07027800D288D2A8D2AF2208
:030003000201D91E
:1001D900C0E0C0D075D000C004C005C006C0071279
:1001E900021E20B205B28C750E00D007D006D005CC
:0701F900D004D0D0D0E032A9
:10019700C2A58B807F017E001201C0D2A77F057E9A
:1001A700001201C0C2A7EBC454F0F5807F017E00A6
:0901B7001201C0D2A77F057E00F1
:1001C000D3EF9400EE9400400F7DC77C01DCFEDD90
:0801D000FAEF1F70EB1E80E83E
:0101D8002204
:0C025700AB07C2A7C2A6120197C2A722E3
:0C026300AB07C2A7D2A6120197C2A722C7
:100200007F321202577F281202577F0C1202577F4B
:0E021000061202577F011202577F800202572A
:00000001FF
