:030000000208D51E
:0C08D500787FE4F6D8FD7581070208C1A9
:1008A100E4FDFCC3ED9FEC9E5015E4FBFA0BBB008D
:0F08B100010AEB64784A70F50DBD00010C80E47C
:0108C0002215
:10080000EF14B4080040030208A090081875F00324
:10081000A4C58325F0C58373020830020836020898
:10082000470208580208660208740208820208900B
:10083000D290C297805ED291C297C296C295C2945E
:10084000C293C292C29022D292C297C296C295C25D
:1008500094C293C291C29022D293C297C296C2957B
:10086000C290C2948036D294C297C296C295C2906A
:10087000C2938028D295C297C296C290C294C29366
:10088000801AD296C297C290C295C294C293800C2D
:10089000D297C290C296C295C294C293C292C2919C
:0108A0002235
:1008C100E4F9AF011208007FF47E011208A109B911
:0408D10009F080ECBE
:00000001FF
