:03000000020800F3
:0C080000787FE4F6D8FD758123020847DC
:10096800140A00C000F900A400B0009900920082A7
:0609780000F80080009071
:1008E100E4F520F52185201E85211FE4F522F5235D
:1008F1001209361209510523E52370020522C3941A
:1009010088E522941340E90521E52170020520C301
:0A0911009464E520940040CD80C6F8
:10091B00EF1FAA0670011ED39400EA9400400BE46B
:0A092B00FDEDC3947D50E90D80F747
:01093500229F
:10093600AE1EAF1F7C007D0A12088C8F09AE1EAF5B
:0B0946001F7C007D0A12088C8D082227
:10095100E50825E0240AF808E6F580E50925E02404
:070961000AF808E6F5A022E8
:10080C000208E1E493A3F8E493A34003F68001F219
:10081C0008DFF48029E493A3F85407240CC8C333ED
:10082C00C4540F4420C8834004F456800146F6DFBC
:10083C00E4800B0102040810204080900968E47EDB
:10084C00019360BCA3FF543F30E509541FFEE493B1
:10085C00A360010ECF54C025E060A840B8E493A378
:10086C00FAE493A3F8E493A3C8C582C8CAC583CAA3
:10087C00F0A3C8C582C8CAC583CADFE9DEE780BE5B
:01097E000078
:10088C00BC000BBE0029EF8DF084FFADF022E4CC50
:10089C00F875F008EF2FFFEE33FEEC33FCEE9DEC19
:1008AC00984005FCEE9DFE0FD5F0E9E4CEFD22ED5F
:1008BC00F8F5F0EE8420D21CFEADF075F008EF2FA9
:1008CC00FFED33FD4007985006D5F0F222C398FD9A
:0508DC000FD5F0EA2237
:00000001FF
