:030000000208DF14
:0C08DF00787FE4F6D8FD75812F02092611
:100A78000A1E407924301912027800100708BFDFD7
:050A8800EFF7FBFD7E0D
:0B0A8E00EF1FAC0670011E4C70F6223A
:0E096B00AF19AE18AD17AC16752C00752D0522
:080979008F2B8E2A8D298C289A
:10098100E4F52EF52FC3E52F952DE52C6480F8E5D0
:100991002E648098503DE47B0AFAF9F8AF2BAE2A19
:1009A100AD29AC2812083CAF03740F252FF8A60718
:1009B100AF2BAE2AAD29AC28E47B0AFAF9F812086C
:1009C1003C8F2B8E2A8D298C28052FE52F70B6059B
:0309D1002E80B2C3
:0109D4002200
:040A2A007F057E00C6
:040A2E008E288F2956
:100A3200E4FBFA900000C3E5829529E5286480F87A
:100A4200E5836480985023AF8274082FF8E6F5A0FE
:100A5200AF82740F2FF8E6241EF8E6F5807FF47E4D
:100A620001120A8E75A0FFA380CC0BBB00010AEB1A
:050A7200640A4A70BE99
:010A7700225C
:1009D5007519CD751881751701751600E4FFFEFDB3
:1009E500FCAB19AA18A917A816C31208CE40E12016
:1009F500B20812096B120A2A80D620B30812096BB5
:100A0500120A2A80F512096B120A2AE51924FFF544
:100A150019E51834FFF518E51734FFF517E5163411
:050A2500FFF51680B78B
:1008EB000209D5E493A3F8E493A34003F68001F245
:1008FB0008DFF48029E493A3F85407240CC8C3330E
:10090B00C4540F4420C8834004F456800146F6DFDC
:10091B00E4800B0102040810204080900A78E47EEA
:10092B00019360BCA3FF543F30E509541FFEE493D1
:10093B00A360010ECF54C025E060A840B8E493A398
:10094B00FAE493A3F8E493A3C8C582C8CAC583CAC3
:10095B00F0A3C8C582C8CAC583CADFE9DEE780BE7B
:010A8D000068
:1008000075F008758200EF2FFFEE33FECD33CDCCAF
:1008100033CCC58233C5829BED9AEC99E582984032
:100820000CF582EE9BFEED9AFDEC99FC0FD5F0D60F
:10083000E4CEFBE4CDFAE4CCF9A88222B800C1B939
:100840000059BA002DEC8BF084CFCECDFCE5F0CB77
:10085000F97818EF2FFFEE33FEED33FDEC33FCEBB0
:1008600033FB10D703994004EB99FB0FD8E5E4F96B
:10087000FA227818EF2FFFEE33FEED33FDEC33FC58
:10088000C933C910D7059BE99A4007EC9BFCE99A4C
:10089000F90FD8E0E4C9FAE4CCFB2275F010EF2F91
:1008A000FFEE33FEED33FDCC33CCC833C810D70791
:1008B0009BEC9AE899400AED9BFDEC9AFCE899F8CC
:0E08C0000FD5F0DAE4CDFBE4CCFAE4C8F9225F
:1008CE00EB9FF5F0EA9E42F0E99D42F0E89C45F080
:0108DE0022F7
:00000001FF
