:03000000020A7C75
:0C0A7C00787FE4F6D8FD758123020800A5
:0F0A6C007F017E000FBF00010EEF64784E70F522
:010A7B002258
:10080000E4F50AF50BE4F50CF50DE4F50EF50FE44F
:10081000F510F511E4F512F513E4F514F515E4F50A
:1008200016F517E4F518F519E4F51AF51BE4F51CAF
:10083000F51DE4F51EF51FE4F520F521E4F522F59C
:1008400023E4FDFCE4FBFA900000E4F508F50975EB
:10085000A0FFE4F5B08582A0120A6C75A0FF75B008
:10086000018BA0120A6C75A0FF75B0028DA0120A50
:100870006C75A0FF75B0038523A0120A6C75A0FFEC
:1008800075B0048521A0120A6C75A0FF75B00585AE
:100890001FA0120A6C75A0FF75B006851DA0120A74
:1008A0006C75A0FF75B007851BA0120A6C75A0FFC0
:1008B00075B0088519A0120A6C75A0FF75B009857E
:1008C00017A0120A6C75A0FF75B00A8515A0120A50
:1008D0006C75A0FF75B00B8513A0120A6C75A0FF94
:1008E00075B00C8511A0120A6C75A0FF75B00D854E
:1008F0000FA0120A6C75A0FF75B00E850DA0120A2C
:100900006C75A0FF75B00F850BA0120A6C0509E588
:100910000970020508C3943FE50864809480500381
:1009200002084FA3E58264024583600302084A0B74
:10093000BB00010AEB64024A60030208470DBD00D8
:10094000010CED64024C60030208440523E52370AA
:10095000020522C39402E5226480948050030208B9
:10096000410521E52170020520C39402E520648041
:100970009480500302083C051FE51F7002051EC34A
:100980009402E51E648094805003020837051DE53B
:100990001D7002051CC39402E51C64809480500302
:1009A000020832051BE51B7002051AC39402E51A02
:1009B00064809480500302082D0519E51970020522
:1009C00018C39402E5186480948050030208280537
:1009D00017E51770020516C39402E516648094802B
:1009E00050030208230515E51570020514C394028F
:1009F000E51464809480500302081E0513E513700B
:100A0000020512C39402E512648094805003020828
:100A1000190511E51170020510C39402E5106480F8
:100A200094805003020814050FE50F7002050EC3F1
:100A30009402E50E64809480500302080F050DE5D2
:100A40000D7002050CC39402E50C64809480500381
:100A500002080A050BE50B7002050AC39402E50AB9
:0C0A600064809480500302080502080026
:00000001FF
