:030000000208AD46
:0C08AD00787FE4F6D8FD75810902080090
:0A0899007508FD7509E8AF09AE0807
:0A08A300EF1F70011E144E70F722C3
:10080000E4F59075900175A0C01208997590027575
:10081000A0F912089975900475A0A4120899759012
:100820000875A0B012089975900175A099120899E1
:1008300075900275A09212089975900475A08212A5
:10084000089975900875A0F812089975900175A01F
:100850008012089975900275A090120899759004FD
:1008600075A00812089975900875A003120899756B
:10087000900175A04612089975900275A021120882
:100880009975900475A00612089975900875A00EC8
:09089000120899120899020803EC
:00000001FF
