:03000000020800F3
:0C080000787FE4F6D8FD758111020847EE
:0409050002100000DC
:08088C008F0B8E0A8D098C0808
:10089400E4F50FF50EF50DF50CAF0BAE0AAD09AC92
:1008A40008AB0FAA0EA90DA80CC31208F45017E543
:1008B4000F2401F50FE4350EF50EE4350DF50DE4C6
:0608C400350CF50C80D399
:0108CA00220B
:1008CB00E4F5A0C3E511940AE510648094805018F8
:1008DB008511A00511E511700205107F107E277D93
:0908EB00007C0012088C80DB2265
:10080C000208CBE493A3F8E493A34003F68001F22F
:10081C0008DFF48029E493A3F85407240CC8C333ED
:10082C00C4540F4420C8834004F456800146F6DFBC
:10083C00E4800B0102040810204080900905E47E3E
:10084C00019360BCA3FF543F30E509541FFEE493B1
:10085C00A360010ECF54C025E060A840B8E493A378
:10086C00FAE493A3F8E493A3C8C582C8CAC583CAA3
:10087C00F0A3C8C582C8CAC583CADFE9DEE780BE5B
:0109090000ED
:1008F400EB9FF5F0EA9E42F0E99D42F0E89C45F05A
:0109040022D0
:00000001FF
