:03000000020800F3
:0C080000787FE4F6D8FD758111020847EE
:0C08EB000A08C0F9A4B0999282F880902D
:0F08DB007F017E000FBF00010EEF64F04E70F53D
:0108EA0022EB
:10088C00E4FCFDE4FBFA9000FA7580FF74082BF889
:10089C00E6F5807590FF1208DB7580FF74082DF863
:1008AC00E6F580E4F5901208DBE5821582700215FE
:1008BC0083E582458370D20BBB00010AEB640A4AC4
:0F08CC0070C40DBD00010CED640A4C70B680B114
:10080C0002088CE493A3F8E493A34003F68001F26E
:10081C0008DFF48029E493A3F85407240CC8C333ED
:10082C00C4540F4420C8834004F456800146F6DFBC
:10083C00E4800B01020408102040809008EBE47E59
:10084C00019360BCA3FF543F30E509541FFEE493B1
:10085C00A360010ECF54C025E060A840B8E493A378
:10086C00FAE493A3F8E493A3C8C582C8CAC583CAA3
:10087C00F0A3C8C582C8CAC583CADFE9DEE780BE5B
:0108F7000000
:00000001FF
