:030000000208965D
:0C089600787FE4F6D8FD75811D0208DDB6
:0C09BD000A14C0F9A4B0999282F880904E
:0F09AD007F017E000FBF00010EBE01F8BFE0F515
:0109BC002218
:10080000900000851210851311E513B4200DE51238
:10081000B44E0875122775131080080513E5137080
:10082000020512AE10AF117C007D0A120922AF82C0
:10083000EF25E02408F8A60408A605AE10AF117C49
:10084000007D0A1209228E108F11A3E51145107048
:10085000D2FA7B3FD3EB9400EA6480948040A17588
:1008600090FF8509A07590FE1209AD7590FF850B6C
:10087000A07590FD1209AD7590FF850DA07590FBD8
:100880001209AD7590FF850FA07590F71209ADEBB9
:060890001B70C11A80BEBE
:1008A200020800E493A3F8E493A34003F68001F264
:1008B20008DFF48029E493A3F85407240CC8C33357
:1008C200C4540F4420C8834004F456800146F6DF26
:1008D200E4800B01020408102040809009BDE47EF0
:1008E200019360BCA3FF543F30E509541FFEE4931B
:1008F200A360010ECF54C025E060A840B8E493A3E2
:10090200FAE493A3F8E493A3C8C582C8CAC583CA0C
:10091200F0A3C8C582C8CAC583CADFE9DEE780BEC4
:0109C900002D
:10092200C2D5EC30E709B2D5E4C39DFDE49CFCEEF0
:1009320030E715B2D5E4C39FFFE49EFE120958C307
:10094200E49DFDE49CFC800312095830D507C3E402
:060952009FFFE49EFE225F
:10095800BC000BBE0029EF8DF084FFADF022E4CC83
:10096800F875F008EF2FFFEE33FEEC33FCEE9DEC4C
:10097800984005FCEE9DFE0FD5F0E9E4CEFD22ED92
:10098800F8F5F0EE8420D21CFEADF075F008EF2FDC
:10099800FFED33FD4007985006D5F0F222C398FDCD
:0509A8000FD5F0EA226A
:00000001FF
