:030000000208A54E
:0C08A500787FE4F6D8FD7581160208EC9F
:0C0945000A08C0F9A4B0999282F88090D2
:04093100F8E6F5806F
:0F0935007F017E000FBF00010EEF64C84E70F50A
:010944002290
:10080000E4F514F515FBFAF582F583E4F514F51516
:10081000E4FCFDE4F583F582751200751364AF8284
:1008200074082FF8E6F5807590FE1209357590FF73
:100830007590FD74082D1209317590FF7590FB7449
:100840000825151209317590FF7590F774082B1261
:1008500009317590FFE513151370021512D3E513D6
:100860009400E5126480948050B4A3E582640A4544
:100870008370A50DBD00010CED640A4C7095051543
:10088000E51570020514C3940AE514648094805041
:10089000030208100BBB00010AEB640A4A60030262
:0508A000080B02080036
:1008B100020800E493A3F8E493A34003F68001F255
:1008C10008DFF48029E493A3F85407240CC8C33348
:1008D100C4540F4420C8834004F456800146F6DF17
:1008E100E4800B0102040810204080900945E47E59
:1008F100019360BCA3FF543F30E509541FFEE4930C
:10090100A360010ECF54C025E060A840B8E493A3D2
:10091100FAE493A3F8E493A3C8C582C8CAC583CAFD
:10092100F0A3C8C582C8CAC583CADFE9DEE780BEB5
:0109510000A5
:00000001FF
